:020000002100DD
:1001000075813FC2AF1201A01201CD1202269002EA
:10011000ED12022B858C34858A35E5341201E7E532
:10012000351201E7742C1201FD8534838535821266
:100130000253E5F01201E7E5831201E7E5821201BF
:10014000E79002F312022B858D34858B35E534124E
:1001500001E7E5351201E7742C1201FD8534838532
:100160003582120253E5F01201E7E5831201E7E55B
:10017000821201E79002FD12022B12021DB2B71289
:100180000199808AC0077F500201B5C0077F28020D
:1001900001B5C0077F140201B5C0077F0A0201B58F
:1001A000C0077F050201B5C0077F020201B5C00785
:1001B0007F010201B5C0E0C0F075F0C87472D5E0EF
:1001C000FDD5F0F8DFF3D0F0D0E0D00722758955E7
:1001D0007598507400F58775C83475CBFF75CADC07
:1001E000C2AFD28CD28E22C0E0C41201EFD0E0C0E8
:1001F00083C08290020D540F93D082D083C0A8C2D6
:10020000ACC299F5993099FDC299D0A8223031320B
:1002100033343536373839414243444546740D311D
:10022000FD740A31FD22740C31FD22E49360053126
:10023000FDA380F722C0A8C2ACC299F5993099FD00
:10024000C299D0A822C0A8C2AC3098FDC298E59946
:10025000D0A8227F007E00AD83AC82783012029B52
:100260007831E6F5F008E6F58308E6F5822200E845
:100270008BF0A4FBA9F0E88CF0A4C329FC74003532
:10028000F0F9E88DF0A4C329FD740035F0F9E88E8B
:10029000F0A4C329FE740035F0FF22E4F608F60846
:1002A000F608F6A900758320EC33FCED33FDEE3340
:1002B000FEEF33FF758204A801E635E0D4F618D5C9
:1002C00082F7D583E322AC83AB827E007F00758307
:1002D00010EB33FBEC33FC7582027807E635E0D493
:1002E000F618D582F7D583E98E838F822244323285
:0F02F000205B005D207C20443233205B005D00EA
:00000001FF
