:020000002100DD
:1001000075813FC2AF12023B12033A120268C3125A
:1001100002D8B4300D9004021202E6743FF4F5A048
:1001200080ECB4310D90040A1202E67406F4F5A0D6
:1001300080DCB4320D9004121202E6745BF4F5A078
:1001400080CCB4330D90041A1202E6744FF4F5A07B
:1001500080BCB4340D9004221202E67466F4F5A05B
:1001600080ACB4350D90042A1202E6746DF4F5A04B
:10017000809CB4360D9004321202E6747DF4F5A032
:10018000808CB4370D90043A1202E67407F4F5A09F
:10019000210EB4380D9004421202E6747FF4F5A0EB
:1001A000210EB4390D90044A1202E6746FF4F5A0E2
:1001B000210EB4410D9004521202E67477F4F5A0BA
:1001C000210EB4420D90045A1202E6747CF4F5A09C
:1001D000210EB4430D9004621202E67439F4F5A0C6
:1001E000210EB4440D90046A1202E6745EF4F5A088
:1001F000210EB4450D9004721202E67479F4F5A054
:10020000210EB4460D90047A1202E67471F4F5A042
:10021000210E9003FA1202E67400F4F5A0210EC03C
:10022000077F50020250C0077F28020250C0077F9C
:1002300014020250C0077F0A020250C0077F050265
:100240000250C0077F02020250C0077F0102025025
:10025000C0E0C0F075F0C87472D5E0FDD5F0F8DFED
:10026000F3D0F0D0E0D00722758920759850758DB5
:10027000FD7400F587C2AFD28E22C0E0C4120282A4
:10028000D0E0C083C0829002A0540F93D082D0836C
:10029000C0A8C2ACC299F5993099FDC299D0A822E4
:1002A00030313233343536373839414243444546AC
:1002B000740D5190740A519022740C519022E49361
:1002C00060055190A380F722C0A8C2ACC299F599ED
:1002D0003099FDC299D0A822C0A8C2AC3098FDC206
:1002E00098E599D0A82278217F08E493F608A3DF47
:1002F000F975830185218212036975830285228243
:10030000120369758303852382120369758304854B
:10031000248212036975830585258212036975831A
:100320000685268212036975830785278212036971
:1003300075830885288212036922900B07120369CE
:10034000900900120369900F00120369900A0812C5
:100350000369900C0112036922900F0112036912C4
:1003600003EC900F0012036922D290D292C2910046
:10037000000000000000000000000000000000007D
:1003800000000000000000E5831203B0E5821203C4
:10039000B0000000000000000000000000000000AD
:1003A000000000000000000000D290D292D2912202
:1003B0007F08339290000000000000000000000061
:1003C00000000000000000000000000000C29200D9
:1003D000000000000000000000000000000000001D
:1003E00000000000000000D292DFC722E4F5F07F99
:1003F00005D5E0FDD5F0FADFF8220000000000008E
:1004000000003C42464A5262423C001838381818F4
:10041000183C003844040810207C001C22020C0206
:10042000221C000C1424243E0404007C40403804A8
:100430004438000C10203C22221C007C04081020B0
:100440002020001C22221C22221C001C22221E0210
:100450000418001C2222223E2222003C22223C229E
:10046000223C001C22202020221C003C222222228E
:10047000223C003E22203820223E003E2020382010
:0204800020203A
:00000001FF
