:020000002100DD
:1001000075813FC2AF12015512025430900B3091ED
:100110001030921530931A80F2900314120200806E
:10012000EA90031C12020080E29003241202008075
:10013000DA90032C12020080D2C0077F5002016ABD
:10014000C0077F2802016AC0077F1402016AC00746
:100150007F0A02016AC0077F0502016AC0077F02A9
:1001600002016AC0077F0102016AC0E0C0F075F0B9
:10017000C87472D5E0FDD5F0F8DFF3D0F0D0E0D050
:100180000722758921759850758DFD7400F587C219
:10019000AFD28E22C0E0C412019CD0E0C083C082E6
:1001A0009001BA540F93D082D083C0A8C2ACC29938
:1001B000F5993099FDC299D0A822303132333435C7
:1001C00036373839414243444546740D31AA740AE2
:1001D00031AA22740C31AA22E493600531AAA380CB
:1001E000F722C0A8C2ACC299F5993099FDC299D046
:1001F000A822C0A8C2AC3098FDC298E599D0A82228
:1002000078217F08E493F608A3DFF975830185213F
:100210008212028375830285228212028375830310
:1002200085238212028375830485248212028375DA
:100230008305852582120283758306852682120234
:100240008375830785278212028375830885288238
:1002500012028322900B071202839009001202837C
:10026000900F00120283900A08120283900C011270
:10027000028322900F01120283120306900F0012D4
:10028000028322D2B4D2B2C2B30000000000000048
:10029000000000000000000000000000000000005E
:1002A00000E5831202CAE5821202CA0000000000C3
:1002B000000000000000000000000000000000003E
:1002C000000000D2B4D2B2D2B3227F083392B4007D
:1002D000000000000000000000000000000000001E
:1002E00000000000000000C2B2000000000000009A
:1002F00000000000000000000000000000000000FE
:1003000000D2B2DFC722E4F5F07F05D5E0FDD5F0DD
:10031000FADFF8223C42A581A599423C3C42A581E6
:10032000BD81423C3C42A58199A5423C3C42A5810D
:040330009999423C19
:00000001FF
